{
  "_format": "hh-sol-artifact-1",
  "contractName": "FireFarm",
  "sourceName": "contracts/FireFarm.sol",
  "abi": [
    {
      "inputs": [
        {
          "internalType": "contract FireToken",
          "name": "_fireToken",
          "type": "address"
        },
        {
          "internalType": "address",
          "name": "usdcContractAddress",
          "type": "address"
        }
      ],
      "stateMutability": "nonpayable",
      "type": "constructor"
    },
    {
      "inputs": [],
      "name": "USDc",
      "outputs": [
        {
          "internalType": "contract USDC",
          "name": "",
          "type": "address"
        }
      ],
      "stateMutability": "view",
      "type": "function"
    },
    {
      "inputs": [],
      "name": "fireToken",
      "outputs": [
        {
          "internalType": "contract FireToken",
          "name": "",
          "type": "address"
        }
      ],
      "stateMutability": "view",
      "type": "function"
    },
    {
      "inputs": [
        {
          "internalType": "address",
          "name": "",
          "type": "address"
        }
      ],
      "name": "hasStaked",
      "outputs": [
        {
          "internalType": "bool",
          "name": "",
          "type": "bool"
        }
      ],
      "stateMutability": "view",
      "type": "function"
    },
    {
      "inputs": [
        {
          "internalType": "address",
          "name": "",
          "type": "address"
        }
      ],
      "name": "isStaking",
      "outputs": [
        {
          "internalType": "bool",
          "name": "",
          "type": "bool"
        }
      ],
      "stateMutability": "view",
      "type": "function"
    },
    {
      "inputs": [],
      "name": "issueTokens",
      "outputs": [],
      "stateMutability": "nonpayable",
      "type": "function"
    },
    {
      "inputs": [],
      "name": "name",
      "outputs": [
        {
          "internalType": "string",
          "name": "",
          "type": "string"
        }
      ],
      "stateMutability": "view",
      "type": "function"
    },
    {
      "inputs": [],
      "name": "owner",
      "outputs": [
        {
          "internalType": "address",
          "name": "",
          "type": "address"
        }
      ],
      "stateMutability": "view",
      "type": "function"
    },
    {
      "inputs": [
        {
          "internalType": "uint256",
          "name": "_amount",
          "type": "uint256"
        }
      ],
      "name": "stakeTokens",
      "outputs": [],
      "stateMutability": "nonpayable",
      "type": "function"
    },
    {
      "inputs": [
        {
          "internalType": "uint256",
          "name": "",
          "type": "uint256"
        }
      ],
      "name": "stakers",
      "outputs": [
        {
          "internalType": "address",
          "name": "",
          "type": "address"
        }
      ],
      "stateMutability": "view",
      "type": "function"
    },
    {
      "inputs": [
        {
          "internalType": "address",
          "name": "",
          "type": "address"
        }
      ],
      "name": "stakingBalance",
      "outputs": [
        {
          "internalType": "uint256",
          "name": "",
          "type": "uint256"
        }
      ],
      "stateMutability": "view",
      "type": "function"
    },
    {
      "inputs": [],
      "name": "unstakeTokens",
      "outputs": [],
      "stateMutability": "nonpayable",
      "type": "function"
    }
  ],
  "bytecode": "0x60c0604052600960808190526804649524520446170760bc1b60a090815261002a9160009190610097565b5034801561003757600080fd5b506040516109f23803806109f283398101604081905261005691610130565b600280546001600160a01b039384166001600160a01b03199182161790915560038054929093169181169190911790915560018054909116331790556101bc565b8280546100a390610169565b90600052602060002090601f0160209004810192826100c5576000855561010b565b82601f106100de57805160ff191683800117855561010b565b8280016001018555821561010b579182015b8281111561010b5782518255916020019190600101906100f0565b5061011792915061011b565b5090565b5b80821115610117576000815560010161011c565b60008060408385031215610142578182fd5b825161014d816101a4565b602084015190925061015e816101a4565b809150509250929050565b600181811c9082168061017d57607f821691505b6020821081141561019e57634e487b7160e01b600052602260045260246000fd5b50919050565b6001600160a01b03811681146101b957600080fd5b50565b610827806101cb6000396000f3fe608060405234801561001057600080fd5b50600436106100a95760003560e01c80637547c7a3116100715780637547c7a3146101625780638da5cb5b14610175578063a5ce413b14610188578063afcc4ad514610190578063c93c8f34146101a3578063fd5e6dd1146101c657600080fd5b806306fdde03146100ae5780633b536686146100cc57806345bc78ab146100f757806360ab5852146101255780636f49712b1461012f575b600080fd5b6100b66101d9565b6040516100c391906106fa565b60405180910390f35b6002546100df906001600160a01b031681565b6040516001600160a01b0390911681526020016100c3565b610117610105366004610694565b60056020526000908152604090205481565b6040519081526020016100c3565b61012d610267565b005b61015261013d366004610694565b60076020526000908152604090205460ff1681565b60405190151581526020016100c3565b61012d6101703660046106e2565b6103db565b6001546100df906001600160a01b031681565b61012d610561565b6003546100df906001600160a01b031681565b6101526101b1366004610694565b60066020526000908152604090205460ff1681565b6100df6101d43660046106e2565b61066a565b600080546101e690610785565b80601f016020809104026020016040519081016040528092919081815260200182805461021290610785565b801561025f5780601f106102345761010080835404028352916020019161025f565b820191906000526020600020905b81548152906001019060200180831161024257829003601f168201915b505050505081565b6001546001600160a01b031633146102c65760405162461bcd60e51b815260206004820152601860248201527f63616c6c6572206d75737420626520746865206f776e6572000000000000000060448201526064015b60405180910390fd5b60005b6004548110156103d8576000600482815481106102f657634e487b7160e01b600052603260045260246000fd5b60009182526020808320909101546001600160a01b0316808352600590915260409091205490915080156103c3576002546001600160a01b031663a9059cbb83610343620f424085610765565b6040516001600160e01b031960e085901b1681526001600160a01b0390921660048301526024820152604401602060405180830381600087803b15801561038957600080fd5b505af115801561039d573d6000803e3d6000fd5b505050506040513d601f19601f820116820180604052508101906103c191906106c2565b505b505080806103d0906107c0565b9150506102c9565b50565b600081116104205760405162461bcd60e51b81526020600482015260126024820152710616d6f756e742063616e6e6f7420626520360741b60448201526064016102bd565b6003546040516323b872dd60e01b8152336004820152306024820152604481018390526001600160a01b03909116906323b872dd90606401602060405180830381600087803b15801561047257600080fd5b505af1158015610486573d6000803e3d6000fd5b505050506040513d601f19601f820116820180604052508101906104aa91906106c2565b50336000908152600560205260409020546104c690829061074d565b3360009081526005602090815260408083209390935560069052205460ff1661052c57600480546001810182556000919091527f8a35acfbc15ff81a39ae7d344fd709f28e8600b4aa8c65c6b64bfe7fe36bd19b0180546001600160a01b031916331790555b503360009081526007602090815260408083208054600160ff1991821681179092556006909352922080549091169091179055565b33600090815260056020526040902054806105be5760405162461bcd60e51b815260206004820152601b60248201527f7374616b696e672062616c616e63652063616e6e6f742062652030000000000060448201526064016102bd565b60035460405163a9059cbb60e01b8152336004820152602481018390526001600160a01b039091169063a9059cbb90604401602060405180830381600087803b15801561060a57600080fd5b505af115801561061e573d6000803e3d6000fd5b505050506040513d601f19601f8201168201806040525081019061064291906106c2565b505033600090815260056020908152604080832083905560079091529020805460ff19169055565b6004818154811061067a57600080fd5b6000918252602090912001546001600160a01b0316905081565b6000602082840312156106a5578081fd5b81356001600160a01b03811681146106bb578182fd5b9392505050565b6000602082840312156106d3578081fd5b815180151581146106bb578182fd5b6000602082840312156106f3578081fd5b5035919050565b6000602080835283518082850152825b818110156107265785810183015185820160400152820161070a565b818111156107375783604083870101525b50601f01601f1916929092016040019392505050565b60008219821115610760576107606107db565b500190565b60008261078057634e487b7160e01b81526012600452602481fd5b500490565b600181811c9082168061079957607f821691505b602082108114156107ba57634e487b7160e01b600052602260045260246000fd5b50919050565b60006000198214156107d4576107d46107db565b5060010190565b634e487b7160e01b600052601160045260246000fdfea2646970667358221220b002059de3d4eba75fff98070b1b4bdb3dce9753ffcc417f131d8a25ffbbff9f64736f6c63430008040033",
  "linkReferences": {},
  "deployedLinkReferences": {}
}